:1000000045C0000060C000005EC000005CC0000091
:100010005AC0000058C0000056C0000054C0000084
:1000200052C0000050C000004EC000004CC0000094
:100030004AC0000048C0000046C0000044C00000A4
:100040003AC3000040C000003FC000003CC00000B8
:100050003AC0000038C0000036C0000034C00000C4
:1000600032C0000030C000002EC000002CC00000D4
:100070002AC0000028C0000026C0000024C00000E4
:1000800022C0000020C000001EC0000011241FBEBE
:10009000CFEFD0E1DEBFCDBF11E0A0E0B1E0E0E600
:1000A000FDE000E00BBF02C007900D92AE34B10737
:1000B000D9F721E0AEE4B1E001C01D92AC39B2073E
:1000C000E1F740D04BC69CCF1F920F920FB60F9214
:1000D00011240BB60F922F933F934F935F936F931F
:1000E0007F938F939F93AF93BF93EF93FF931DD312
:1000F000FF91EF91BF91AF919F918F917F916F9100
:100100005F914F913F912F910F900BBE0F900FBEBB
:100110000F901F9018958FB582608FBD8EB5886146
:100120008EBD8FB5806A8FBD8EB582608EBD8FE328
:100130009CE997BD86BD0895B3D217D1D3D2EBDF2A
:1001400078940895CF93DF93CDB7DEB76A970FB653
:10015000F894DEBF0FBECDBFE6E9F1E08EE091E09E
:100160009383828380E091E091838083E5DF88E060
:100170008ABB88248394912C8E010F5E1F4F689454
:10018000772475F85E0126E0A20EB11C0F2EF5E46F
:10019000CF2EF1E0DF2EF02D602E512EEED28823EF
:1001A00009F1EED27C0143E150E06EE171E0EDD265
:1001B000892B41F410921D0110921C0190924F0165
:1001C00080924E0144E150E061E371E0C701DDD26D
:1001D000892B41F490921D0180921C0110924F01D5
:1001E00010924E0180911C0190911D01019709F020
:1001F00040C0BE016F5F7F4F82E5EAD1813079F563
:10020000CE0101967C01FC0171920E171F07E1F7E8
:10021000CE0101960FD2DB9A9FEFE1EEF4E0915010
:10022000E040F040E1F700C00000DB98F701819169
:100230007F011F928F93DF92CF921F930F93B3D2C0
:10024000862D952D64D20F900F900F900F900F90E8
:100250000F90EA14FB0451F78BE491E058D2FFEFC2
:1002600023ED80E3F15020408040E1F700C0000022
:1002700095CF8091500190915101019709F08ECF57
:10028000BE016F5F7F4F82E5A3D1813009F04BC083
:10029000FE0131967F0171920E171F07E1F7CE0123
:1002A0000196C8D1DB9AFFEF21EE84E0F1502040A7
:1002B0008040E1F700C00000DB989FEFE1EEF4E042
:1002C0009150E040F040E1F700C00000DB9A2FEFD2
:1002D00081EE94E0215080409040E1F700C00000A2
:1002E000DB98EFEFF1EE24E0E150F0402040E1F741
:1002F00000C00000F70181917F011F928F93DF9270
:10030000CF921F930F934FD2862D952D00D20F9031
:100310000F900F900F900F900F90AE14BF0451F7F5
:100320008BE491E0F4D1FFEF23ED80E3F150204026
:100330008040E1F700C0000031CFCF93C62FC098B6
:10034000880F8E77B3D18C2FB1D1C09ACF910895F9
:10035000C098880F8E778068A9D180E0A7D1C09A15
:1003600008956FE081E0E9CF0895FBDF6DE88AE250
:10037000E4DF6EE38BE2E1DF6EE18CE2DEDF60E082
:100380008DE2DBDF60E485E1D8DF6DE381E1D5DF7D
:1003900084E1DEDF982F937021F4682F636084E19D
:1003A000CCCF08953F924F925F926F927F928F923F
:1003B0009F92AF92BF92CF92DF92EF92FF920F93F4
:1003C0001F93CF93DF93982EF62EE72E442E822E86
:1003D000332E58018CE0981609F4BAC0EEE09E1254
:1003E00003C010E102E102C010E000E084E0B0DFF1
:1003F000682F6F7784E0A1DF8AE0AADF682F60684A
:100400008AE09BDF60E081E098DF512C612C712C49
:10041000411451046104710419F414C010E307E796
:10042000CF2DDE2DC12CD12C7601699189E085DF9D
:10043000FFEFCF1ADF0AEF0AFF0AC414D504E6045F
:10044000F70498F3692D81E078DF8CE0981206C0FC
:100450008DE07EDF682F60688DE06FDF84E078DFFD
:10046000F82EC0E0D0E0116009C084E071DFF82E02
:100470002196CF3CE7E0DE0709F483C0812F8F216E
:10048000A1F387C00170F02211F0C2E001C0C1E009
:10049000FCE09F128AC08AE05BDF482E8CE058DFC8
:1004A000282F2770A9F0842D90E00197880F991FBD
:1004B000880F991F880F991F820F911D092E000C1C
:1004C000AA0BBB0BF50180839183A283B38311C078
:1004D000842D90E0880F991F880F991F880F991F0E
:1004E000092E000CAA0BBB0BF50180839183A2831C
:1004F000B383442071F0842D813108F080E1482ECF
:10050000512C612C712C411451046104710429F4A3
:100510004CC0412C512C32014394082D132DC12C79
:10052000D12C760189E014DFF80181938F01FFEF70
:10053000CF1ADF0AEF0AFF0AC414D504E604F70451
:1005400088F333C06CE081E0F8DE10E307E780CF8A
:1005500084E0FEDE682F6F7784E0EFDE8AE0F8DE6D
:10056000682F60688AE0E9DE60E081E0E6DE512C19
:10057000612C712C411451046104710409F04ECFB7
:10058000E1CF8DE0E5DE682F6F778DE0D6DEC3E04A
:100590000CC08DE0DDDE682F6F778DE0CEDE86E06B
:1005A000D7DE8B7109F46ECFC3E08C2FDF91CF9132
:1005B0001F910F91FF90EF90DF90CF90BF90AF9081
:1005C0009F908F907F906F905F904F903F90089595
:1005D000EF92FF920F931F93CF93DF9300D000D041
:1005E000CDB7DEB7182F7B0167E08DE0A6DEF701FF
:1005F00010838E010F5F1F4F970141E0B7018CE020
:10060000D1DE813059F449815A816B817C8140313E
:1006100051056105710519F083E001C083E00F9079
:100620000F900F900F90DF91CF911F910F91FF903E
:10063000EF900895EF92FF920F931F93CF93DF9364
:1006400000D000D0CDB7DEB77C0160E08DE075DE74
:1006500083E9F701808380E281838E010F5F1F4F62
:10066000970142E0B7018CE09DDE813071F4F70123
:10067000A7014C5F5F4F90E0219192274E175F07D3
:10068000D9F7F7012481921383E00F900F900F9018
:100690000F90DF91CF911F910F91FF90EF900895F0
:1006A00087E087BBBB9881E58DB908958FB9779BAB
:1006B000FECF8FB108951F920F920FB60F921124A3
:1006C0008F939F9380915201909153010196909343
:1006D0005301809352019F918F910F900FBE0F9005
:1006E0001F901895109290008FEC89B9599AE5E9FE
:1006F000F0E080818660808388E98AB908955D9BF7
:10070000FECF8CB908955F9BFECF8CB10895CF9337
:10071000DF93EC018881882329F02196F0DF89910D
:100720008111FCCFDF91CF910895CF93DF931F927A
:10073000CDB7DEB78CB1898389818A3019F0898180
:100740008D3061F4E0915401F0E0EA5AFE4F1082DE
:100750001092540181E0809355010BC080915401A7
:10076000E82FF0E09981EA5AFE4F90838F5F8093E3
:1007700054010F90DF91CF91089580915501089514
:100780001092550186E591E00895FB01DC0141508E
:10079000504030F08D910190801919F40020B9F784
:1007A000881B990B08950F931F93CF93DF93CDB7B9
:1007B000DEB72E970FB6F894DEBF0FBECDBF0D8902
:1007C0001E8986E08C831A8309838FEF9FE79E83BF
:1007D0008D83AE01475E5F4F6F89788DCE010196A4
:1007E00010D0EF81F885E00FF11F10822E960FB622
:1007F000F894DEBF0FBECDBFDF91CF911F910F9157
:1008000008952F923F924F925F926F927F928F92B4
:100810009F92AF92BF92CF92DF92EF92FF920F938F
:100820001F93CF93DF93CDB7DEB72B970FB6F89416
:10083000DEBF0FBECDBF6C017B018A01FC011782B8
:100840001682838181FFBFC1CE0101963C01F60172
:100850009381F70193FD859193FF81917F01882317
:1008600009F4ADC1853239F493FD859193FF8191EF
:100870007F01853221F4B60190E0D6D1E8CF912CEA
:10088000212C312CFFE1F315D8F08B3279F038F4BC
:10089000803279F08332A1F4232D20611DC08D3286
:1008A00061F0803369F4232D216016C0832D8260AE
:1008B000382EE32DE4603E2E2AC0F32DF8601DC0D3
:1008C00037FC2DC020ED280F2A3040F08E32B9F4CD
:1008D00036FC75C1232D2064322E19C036FE06C0A9
:1008E0008AE0989E200D1124922E11C0EAE02E9EDF
:1008F000200D1124222EF32DF0623F2E08C08C36DD
:1009000021F4832D8068382E02C0883641F4F70127
:1009100093FD859193FF81917F018111B3CF982F32
:100920009F7D9554933028F40C5F1F4F9FE399836C
:100930000DC0833631F0833771F0833509F055C02F
:1009400020C0F801808189830E5F1F4F8824839423
:10095000912C530112C02801F2E04F0E511CF801F6
:10096000A080B18036FE03C0692D70E002C06FEF39
:100970007FEFC5014ED14C018201F32DFF773F2E51
:1009800015C0280122E0420E511CF801A080B18060
:1009900036FE03C0692D70E002C06FEF7FEFC50126
:1009A0002DD14C01F32DF0683F2E820133FC19C08C
:1009B000822D90E088169906A0F4B60180E290E0BE
:1009C00033D12A94F5CFF50137FC859137FE81911B
:1009D0005F01B60190E028D121102A9421E0821A0B
:1009E00091088114910479F7E1C0843611F08936B9
:1009F00039F5F80137FE07C06081718182819381EA
:100A00000C5F1F4F08C060817181072E000C880B9E
:100A1000990B0E5F1F4FF32DFF763F2E97FF09C0F6
:100A200090958095709561957F4F8F4F9F4FF0689F
:100A30003F2E2AE030E0A30133D1882E861844C02F
:100A4000853731F4232D2F7EB22E2AE030E025C0E9
:100A5000932D997FB92E8F36C1F018F4883579F02F
:100A6000AEC0803719F0883721F0A9C0E92FE061C6
:100A7000BE2EB4FE0DC0FB2DF460BF2E09C034FEA7
:100A80000AC0292F2660B22E06C028E030E005C03B
:100A900020E130E002C020E132E0F801B7FE07C0FB
:100AA00060817181828193810C5F1F4F06C06081DC
:100AB000718180E090E00E5F1F4FA301F1D0882E7E
:100AC0008618FB2DFF773F2E36FE0DC0232D2E7F7F
:100AD000A22E891458F434FE0BC032FC09C0832DB9
:100AE0008E7EA82E05C0B82CA32C03C0B82C01C044
:100AF000B92CA4FE0FC0FE01E80DF11D80818033EA
:100B000021F49A2D997EA92E09C0A2FE06C0B394A5
:100B1000B39404C08A2D867809F0B394A3FC10C066
:100B2000A0FE06C0B21480F4280C922C9B180DC0B5
:100B3000B21458F4B60180E290E076D0B394F8CFC6
:100B4000B21418F42B1802C0982C212CA4FE0FC04C
:100B5000B60180E390E068D0A2FE16C0A1FC03C0FD
:100B600088E790E002C088E590E0B6010CC08A2DCD
:100B7000867851F0A1FE02C08BE201C080E2A7FCA2
:100B80008DE2B60190E050D0891430F4B60180E3D4
:100B900090E04AD09A94F8CF8A94F301E80DF11DC1
:100BA0008081B60190E040D08110F6CF222009F478
:100BB0004ECEB60180E290E037D02A94F7CFF6010E
:100BC0008681978102C08FEF9FEF2B960FB6F89426
:100BD000DEBF0FBECDBFDF91CF911F910F91FF9070
:100BE000EF90DF90CF90BF90AF909F908F907F90CD
:100BF0006F905F904F903F902F900895FC0105906B
:100C0000615070400110D8F7809590958E0F9F1F0E
:100C10000895FC016150704001900110D8F7809553
:100C200090958E0F9F1F08950F931F93CF93DF937F
:100C3000FB01238121FD03C08FEF9FEF2CC022FF1A
:100C400016C046815781248135814217530744F4E9
:100C5000A081B1819D012F5F3F4F318320838C9311
:100C6000268137812F5F3F4F3783268314C08B0146
:100C7000EC01FB010084F185E02D0995892BE1F65B
:100C8000D80116968D919C911797019617969C9373
:100C90008E931697CE01DF91CF911F910F910895FA
:100CA000FA01AA27283051F1203181F1E8946F939D
:100CB0006E7F6E5F7F4F8F4F9F4FAF4FB1E03ED043
:100CC000B4E03CD0670F781F891F9A1FA11D680FE1
:100CD000791F8A1F911DA11D6A0F711D811D911D14
:100CE000A11D20D009F468943F912AE0269F112489
:100CF0003019305D3193DEF6CF010895462F4770ED
:100D0000405D4193B3E00FD0C9F7F6CF462F4F7047
:100D1000405D4A3318F0495D31FD4052419302D0A5
:100D2000A9F7EACFB4E0A69597958795779567954B
:100D3000BA95C9F700976105710508959B01AC014B
:100D40000A2E06945795479537952795BA95C9F772
:100D5000620F731F841F951FA01D0895F894FFCF85
:100D600000000001000000000000830300000000FC
:100D70000002000000007F030000000001006D6120
:100D80006E6167656D656E745F6D6F64655F6F6ED4
:100D9000006D616E6167656D656E745F6D6F646532
:0E0DA0005F6F6666002530327820000A000082
:00000001FF
